:020000040000FA
:0400000007EF00F016
:0A0008007F82EDED16F033EF15F0E6
:100600000000001F001C001F001E001F001E001F16
:10061000001F001E001F001E001F00253034642D27
:10062000253032642D253032642000253034642D8D
:10063000253032642D2530326400253032643A256D
:100640003032643A2530326400005FEF03F0030E6D
:10065000026E000E8BEC19F095EC1AF081B233EFBC
:1006600003F035EF03F046EF03F0E70E7B5C070E77
:100670007C58D8B03EEF03F040EF03F046EF03F0B4
:100680007B4A7C2A79EC15F05FEF03F081B44BEFE5
:1006900003F04DEF03F05FEF03F0E60E7B5C070E17
:1006A0007C58D8A056EF03F058EF03F05FEF03F04B
:1006B0007B06D8A07C0679EC15F025EF03F081B01D
:1006C00064EF03F066EF03F027EF03F08180020E82
:1006D000746E450E736EAA0EE82EFED7732EFCD7ED
:1006E000742EFAD7AAEF03F0060E026E000E8BEC02
:1006F00019F095EC1AF081B280EF03F082EF03F06D
:1007000093EF03F07A5007E10C0E795CD8B08BEFD1
:1007100003F08DEF03F093EF03F0794A7A2A79EC36
:1007200015F0AAEF03F081B498EF03F09AEF03F00D
:10073000AAEF03F07A5009E1020E795CD8A0A3EF8A
:1007400003F0A5EF03F0AAEF03F07906D8A07A062C
:100750008FEF03F081B0AFEF03F0B1EF03F074EF70
:1007600003F08180020E746E450E736EAA0EE82EA1
:10077000FED7732EFCD7742EFAD70CEF04F0090EB7
:10078000026E000E8BEC19F095EC1AF081B2CBEFF3
:1007900003F0CDEF03F0F5EF03F0FF0E736EFF0EE5
:1007A000746ED8907934F66E7A34F76E010EF626B0
:1007B000060EF7220900F5CF75F00900F5CF76F0A7
:1007C00073507526745076227750755C7850765841
:1007D000D8A0EDEF03F0EFEF03F0F5EF03F0774A69
:1007E000782A79EC15F00CEF04F081B4FAEF03F0FD
:1007F000FCEF03F00CEF04F0785009E1020E775C97
:10080000D8A005EF04F007EF04F00CEF04F0770632
:10081000D8A07806F1EF03F081B011EF04F013EFE8
:1008200004F0BFEF03F08180020E746E450E736E0C
:10083000AA0EE82EFED7732EFCD7742EFAD757EFE8
:1008400004F0010E026E010E8BEC19F095EC1AF01B
:1008500081B22DEF04F02FEF04F041EF04F000011E
:10086000F55107E1170EF45DD8B039EF04F03BEF16
:1008700004F041EF04F0F44BF52BEDEC15F057EFDD
:1008800004F081B446EF04F048EF04F057EF04F0B1
:100890000001F451F511D8B450EF04F052EF04F018
:1008A00057EF04F0F407D8A0F5073DEF04F081B04E
:1008B0005CEF04F05EEF04F021EF04F08180020EA3
:1008C000746E450E736EAA0EE82EFED7732EFCD7FB
:1008D000742EFAD7A2EF04F0040E026E010E8BEC18
:1008E00019F095EC1AF081B278EF04F07AEF04F089
:1008F0008CEF04F00001F35107E13C0EF25DD8B03B
:1009000084EF04F086EF04F08CEF04F0F24BF32B4D
:10091000EDEC15F0A2EF04F081B491EF04F093EF49
:1009200004F0A2EF04F00001F251F311D8B49BEFF0
:1009300004F09DEF04F0A2EF04F0F207D8A0F30753
:1009400088EF04F081B0A7EF04F0A9EF04F06CEF9A
:1009500004F08180020E746E450E736EAA0EE82EAE
:10096000FED7732EFCD7742EFAD7EDEF04F0070EE6
:10097000026E010E8BEC19F095EC1AF081B2C3EF08
:1009800004F0C5EF04F0D7EF04F00001F15107E1E6
:100990003C0EF05DD8B0CFEF04F0D1EF04F0D7EF0C
:1009A00004F0F04BF12BEDEC15F0EDEF04F081B419
:1009B000DCEF04F0DEEF04F0EDEF04F00001F051A5
:1009C000F111D8B4E6EF04F0E8EF04F0EDEF04F035
:1009D000F007D8A0F107D3EF04F081B0F2EF04F0F4
:1009E000F4EF04F0B7EF04F08180020E746E450E50
:1009F000736EAA0EE82EFED7732EFCD7742EFAD78C
:100A0000B3EC1AF089EC1AF0120043C0D9FF44C0CD
:100A1000DAFFDECFF6FFDDCFF7FF0800F550250A3D
:100A2000D8A415EF05F017EF05F0A4EF06F043C0CA
:100A3000D9FF44C0DAFFDE2A000EDD22000E0001DD
:100A4000EB6F000EEA6FEAC0EEF0EBC0EFF0EC697E
:100A5000ED69000E546E000E536E7AEF05F0000142
:100A6000EE8143C0D9FF44C0DAFFDE2A000EDD224A
:100A70007AEF05F00001EE8331EF05F00001EE851D
:100A800031EF05F00001EE8731EF05F00001EE894E
:100A900031EF05F0000E546E010E536E7AEF05F043
:100AA00043C0D9FF44C0DAFFDECFF6FFDDCFF7FF4A
:100AB0000800F550476E486A4850000AD8B463EF02
:100AC00005F04AEF05F04750200AD8B442EF05F090
:100AD000030AD8B446EF05F0080AD8B43EEF05F093
:100AE000060AD8B42FEF05F01D0AD8B43AEF05F086
:100AF0004AEF05F053505410D8B481EF05F083EF5E
:100B000005F050EF05F00001EEA189EF05F08BEF45
:100B100005F08CEF05F0EE9343C0D9FF44C0DAFF37
:100B2000DECFF6FFDDCFF7FF0800F5502A0AD8A484
:100B30009CEF05F09EEF05F0C7EF05F043C0D9FF2D
:100B400044C0DAFFDE2A000EDD2245C0D9FF46C0D0
:100B5000DAFFDFCF47F0020EDE26DFCF48F0000ECF
:100B6000DD2247C0D9FF48C0DAFFDECFEAF0DDCF93
:100B7000EBF0EBBFC0EF05F0BEEF05F00AEF06F0BB
:100B8000EE81EA6DEB1FD8B0EB2B0AEF06F043C005
:100B9000D9FF44C0DAFFDECF08F0DDCF09F026EC44
:100BA0000CF008C0EAF009C0EBF0DEEF05F043C03E
:100BB000D9FF44C0DAFFDE2A000EDD22D00E476ED8
:100BC000FF0E486E43C0D9FF44C0DAFFDECFF6FF08
:100BD000DDCFF7FF0800F550496E4A6A47504926B5
:100BE00048504A224A500AE10A0E495CD8A0FBEF5D
:100BF00005F0FEEF05F0010EFFEF05F0000E556E5B
:100C0000566A55505610D8A408EF06F00AEF06F0C1
:100C1000D7EF05F043C0D9FF44C0DAFFDECFF6FFBF
:100C2000DDCFF7FF0800F550640AD8B41AEF06F0DC
:100C30001CEF06F02EEF06F043C0D9FF44C0DAFFE8
:100C4000DECFF6FFDDCFF7FF0800F550690AD8A424
:100C50002CEF06F02EEF06F06EEF06F043C0D9FF42
:100C600044C0DAFFDE2A000EDD2245C0D9FF46C0AF
:100C7000DAFFDFCF47F0020EDE26DFCF48F0000EAE
:100C8000DD2247C0D9FF48C0DAFFDECF4BF0DDCF11
:100C90004CF0000E4CBEFF0E4D6E4E6E4F6E506E01
:100CA000516E526E41C01DF042C01EF04BC01FF08D
:100CB0004CC020F04DC021F04EC022F04FC023F0B8
:100CC00050C024F051C025F052C026F0EAEC09F0E3
:100CD0001DC041F01EC042F0BFEF06F043C0D9FF77
:100CE00044C0DAFFDECFF6FFDDCFF7FF0800F55096
:100CF000250AD8A47EEF06F080EF06F097EF06F005
:100D000043C0D9FF44C0DAFFDE2A000EDD22000E08
:100D1000036E250E026E41C004F042C005F002ECE5
:100D200013F0000E426E010E416EBFEF06F043C09D
:100D3000D9FF44C0DAFFDE2A000EDD22000E426E2B
:100D4000000E416EBFEF06F043C0D9FF44C0DAFF8A
:100D5000DECFF6FFDDCFF7FF0800F550026E036A25
:100D600041C004F042C005F002EC13F043C0D9FFCB
:100D700044C0DAFFDE2A000EDD2291EF06F01200F9
:100D8000CCC0D9FFCDC0DAFFDECFF6FFDDCFF7FF55
:100D90000800F550250AD8A4D0EF06F0D2EF06F0EF
:100DA0005BEF08F0CCC0D9FFCDC0DAFFDE2A000E21
:100DB000DD22000E0001EB6F000EEA6FEAC0EEF0DC
:100DC000EBC0EFF0EC69ED69000EDD6F000EDC6F3B
:100DD00030EF07F0EE81CCC0D9FFCDC0DAFFDE2ABC
:100DE000000EDD2230EF07F0EE83EBEF06F0EE852C
:100DF000EBEF06F0EE87EBEF06F0EE89EBEF06F097
:100E0000000EDD6F010EDC6F30EF07F0CCC0D9FFB4
:100E1000CDC0DAFFDECFF6FFDDCFF7FF0800F550DB
:100E2000D06FD16BD151000AD8B419EF07F000EFA1
:100E300007F0D051200AD8B4FAEF06F0030AD8B46C
:100E4000FDEF06F0080AD8B4F7EF06F0060AD8B4AA
:100E5000EAEF06F01D0AD8B4F4EF06F000EF07F051
:100E6000DC51DD11D8B437EF07F039EF07F006EFAA
:100E700007F0EEA13EEF07F040EF07F041EF07F07B
:100E8000EE93CCC0D9FFCDC0DAFFDECFF6FFDDCFC9
:100E9000F7FF0800F5502A0AD8A451EF07F053EFE6
:100EA00007F07CEF07F0CCC0D9FFCDC0DAFFDE2A17
:100EB000000EDD22CEC0D9FFCFC0DAFFDFCFD0F0E9
:100EC000020EDE26DFCFD1F0000EDD22D0C0D9FF2A
:100ED000D1C0DAFFDECFEAF0DDCFEBF0EBBF75EF8C
:100EE00007F073EF07F0C0EF07F0EE81EA6DEB1F3C
:100EF000D8B0EB2BC0EF07F0CCC0D9FFCDC0DAFFE4
:100F0000DECF91F0DDCF92F05CEC0BF091C0EAF017
:100F100092C0EBF093EF07F0CCC0D9FFCDC0DAFF61
:100F2000DE2A000EDD22D00E0001D06FFF0ED16F41
:100F3000CCC0D9FFCDC0DAFFDECFF6FFDDCFF7FFA3
:100F40000800F550D26FD36BD051D227D151D323A3
:100F5000D3510AE10A0ED25DD8A0B1EF07F0B4EF89
:100F600007F0010EB5EF07F0000EDE6FDF6BDE510C
:100F7000DF11D8A4BEEF07F0C0EF07F08CEF07F049
:100F8000CCC0D9FFCDC0DAFFDECFF6FFDDCFF7FF53
:100F90000800F550640AD8B4D0EF07F0D2EF07F09C
:100FA000E4EF07F0CCC0D9FFCDC0DAFFDECFF6FF0B
:100FB000DDCFF7FF0800F550690AD8A4E2EF07F08B
:100FC000E4EF07F024EF08F0CCC0D9FFCDC0DAFF82
:100FD000DE2A000EDD22CEC0D9FFCFC0DAFFDFCF80
:100FE000D0F0020EDE26DFCFD1F0000EDD22D0C021
:100FF000D9FFD1C0DAFFDECFD4F0DDCFD5F0000EBF
:10100000D5BFFF0ED66FD76FD86FD96FDA6FDB6F92
:10101000CAC0A6F0CBC0A7F0D4C0A8F0D5C0A9F034
:10102000D6C0AAF0D7C0ABF0D8C0ACF0D9C0ADF0F4
:10103000DAC0AEF0DBC0AFF078EC08F0A6C0CAF0C2
:10104000A7C0CBF077EF08F0CCC0D9FFCDC0DAFF56
:10105000DECFF6FFDDCFF7FF0800F550250AD8A454
:1010600034EF08F036EF08F04EEF08F0CCC0D9FFAF
:10107000CDC0DAFFDE2A000EDD22000E8C6F250EB9
:101080008B6FCAC08DF0CBC08EF037EC12F0000E23
:101090000001CB6F010ECA6F77EF08F0CCC0D9FF0B
:1010A000CDC0DAFFDE2A000EDD22000ECB6F000E6F
:1010B000CA6F77EF08F0CCC0D9FFCDC0DAFFDECF22
:1010C000F6FFDDCFF7FF0800F55000018B6F8C6B4A
:1010D000CAC08DF0CBC08EF037EC12F0CCC0D9FF77
:1010E000CDC0DAFFDE2A000EDD2247EF08F0120045
:1010F000A8C0C0F0A9C0C1F0AAC0C2F0ABC0C3F084
:10110000ACC0C4F0ADC0C5F0AEC0C6F0AFC0C7F053
:101110000001C7BF8EEF08F091EF08F0010E92EFCB
:1011200008F0000EBE6FBF6BBE51BF11D8B49BEF6D
:1011300008F09DEF08F0ADEF08F0C71FC61FC51FF0
:10114000C41FC31FC21FC11FC06D000EC123C22315
:10115000C323C423C523C623C723EDBFB2EF08F0C2
:10116000B4EF08F0B5EF08F0EE93EDBFC2EF08F072
:10117000ED5106E1EC05D8B0C0EF08F0C2EF08F081
:10118000C8EF08F0000EBB6F010EBA6FCCEF08F08D
:10119000ECC0BAF0EDC0BBF0EAC0BCF0EBC0BDF0F3
:1011A000BE51BF11D8A4D7EF08F0D9EF08F0E0EF97
:1011B00008F0EEA5DEEF08F0E0EF08F0E3EF08F04E
:1011C000BC07D8A0BD07000EC96F1F0EC86F000E68
:1011D0000101246F69EF09F0C807D8A0C907050EFF
:1011E000C825D96E010EC921DA6EC0C08AF0C1C00F
:1011F0008BF0C2C08CF0C3C08DF0C4C08EF0C5C0EF
:101200008FF0C6C090F0C7C091F00A0E926F000E2A
:10121000936F000E946F000E956F000E966F000E88
:10122000976F000E986F000E996F31EC0FF08AC027
:10123000B0F08BC0B1F08CC0B2F08DC0B3F08EC0F6
:10124000B4F08FC0B5F090C0B6F091C0B7F0B0C0A8
:101250009CF0B2C09DF052EC18F000019C51300F90
:10126000DF6EBA07D8A0BB07BC07D8A0BD07C0C0B7
:101270008AF0C1C08BF0C2C08CF0C3C08DF0C4C076
:101280008EF0C5C08FF0C6C090F0C7C091F00A0EB6
:10129000926F000E936F000E946F000E956F000E0C
:1012A000966F000E976F000E986F000E996FEEEC20
:1012B0000CF08AC0C0F08BC0C1F08CC0C2F08DC0F1
:1012C000C3F08EC0C4F08FC0C5F090C0C6F091C00E
:1012D000C7F00001C9BF75EF09F0C95108E1C805A1
:1012E000D8A075EF09F077EF09F0A7EF09F0C0512A
:1012F000C111C211C311C411C511C611C711D8A49F
:1013000084EF09F086EF09F0ECEF08F0BBBF93EF34
:1013100009F0BB5106E1BA05D8B091EF09F093EF9F
:1013200009F0ECEF08F0BDBF9EEF09F0BD5108E1F8
:10133000BC05D8A09EEF09F0A0EF09F0A7EF09F0D7
:10134000EEB3A5EF09F0A7EF09F0ECEF08F0BE51FE
:10135000BF11D8A4AEEF09F0B0EF09F0B7EF09F074
:10136000EEA5B5EF09F0B7EF09F0D5EF09F0C80722
:10137000D8A0C907BE51BF11D8A4C1EF09F0C3EF6F
:1013800009F0C9EF09F0000EB96F2B0EB86FCDEF61
:1013900009F0000EB96F2D0EB86F050EC825D96E75
:1013A000010EC921DA6EB8C0DFFFA6C09BF0A7C04E
:1013B0009CF0050EC8259D6F010EC9219E6FBCC013
:1013C0009FF0BDC0A0F09DEC12F09BC0A6F09CC0A9
:1013D000A7F012001FC037F020C038F021C039F04C
:1013E00022C03AF023C03BF024C03CF025C03DF0C1
:1013F00026C03EF03EBEFFEF09F002EF0AF0010EFC
:1014000003EF0AF0000E356E366A35503610D8B448
:101410000CEF0AF00EEF0AF01EEF0AF03E1E3D1E22
:101420003C1E3B1E3A1E391E381E376C000E3822F9
:1014300039223A223B223C223D223E220001EDBFCE
:1014400024EF0AF026EF0AF027EF0AF0EE93EDBF43
:1014500034EF0AF0ED5106E1EC05D8B032EF0AF0B6
:1014600034EF0AF03AEF0AF0000E326E010E316EE0
:101470003EEF0AF0ECC031F0EDC032F0EAC033F0DC
:10148000EBC034F035503610D8A449EF0AF04BEFDA
:101490000AF052EF0AF0EEA550EF0AF052EF0AF010
:1014A00055EF0AF03306D8A03406000E406E1F0E2A
:1014B0003F6E000E0101246FDAEF0AF03F06D8A05C
:1014C0004006050E3F24D96E010E4020DA6E37C06B
:1014D00001F038C002F039C003F03AC004F03BC05C
:1014E00005F03CC006F03DC007F03EC008F00A0E13
:1014F000096E000E0A6E000E0B6E000E0C6E000ED2
:101500000D6E000E0E6E000E0F6E000E106EE4ECEF
:101510000FF001C027F002C028F003C029F004C07A
:101520002AF005C02BF006C02CF007C02DF008C033
:101530002EF027C013F029C014F094EC18F01350CB
:10154000300FDF6E3106D8A032063306D8A034063D
:1015500037C001F038C002F039C003F03AC004F0DF
:101560003BC005F03CC006F03DC007F03EC008F0AF
:101570000A0E096E000E0A6E000E0B6E000E0C6E47
:10158000000E0D6E000E0E6E000E0F6E000E106E31
:10159000B3EC0DF001C037F002C038F003C039F0F1
:1015A00004C03AF005C03BF006C03CF007C03DF077
:1015B00008C03EF040BEE5EF0AF0405008E13F04AD
:1015C000D8A0E5EF0AF0E7EF0AF018EF0BF037507C
:1015D000381039103A103B103C103D103E10D8A482
:1015E000F4EF0AF0F6EF0AF05EEF0AF032BE03EF16
:1015F0000BF0325006E13104D8B001EF0BF003EFED
:101600000BF05EEF0AF034BE0EEF0BF0345008E141
:101610003304D8A00EEF0BF010EF0BF018EF0BF027
:101620000001EEB316EF0BF018EF0BF05EEF0AF0CF
:1016300035503610D8A41FEF0BF021EF0BF029EF37
:101640000BF00001EEA527EF0BF029EF0BF047EFB1
:101650000BF03F06D8A0400635503610D8A433EF23
:101660000BF035EF0BF03BEF0BF0000E306E2B0E56
:101670002F6E3FEF0BF0000E306E2D0E2F6E050E0D
:101680003F24D96E010E4020DA6E2FC0DFFF1DC04F
:1016900012F01EC013F0050E3F24146E010E402000
:1016A000156E33C016F034C017F067EC13F012C09B
:1016B0001DF013C01EF01200000E00019F6F000EFF
:1016C0009E6F000E986F000E976F69EF0BF0914BB5
:1016D000922B010E9D6F91C0F6FF92C0F7FF08009C
:1016E000F550200AD8B477EF0BF079EF0BF096EFB6
:1016F0000BF0F70E936FFF0E946F91C0F6FF92C040
:10170000F7FF0800F550956F966B9351952794510C
:101710009623965109E1050E955DD8A092EF0BF046
:1017200094EF0BF096EF0BF0000E9D6F9DC099F0BB
:101730009A6B99519A11D8A4A0EF0BF0A2EF0BF07D
:1017400067EF0BF0ACEF0BF0000E986F010E976F88
:10175000914B922BE2EF0BF091C0F6FF92C0F7FF96
:101760000800F550936F946B9451000AD8B4BBEF06
:101770000BF0E2EF0BF093512B0AD8B4A8EF0BF06B
:10178000060AD8B4A4EF0BF0E2EF0BF09EC08AF08B
:101790009FC08BF0000E8D6F0A0E8C6FA3EC19F0BA
:1017A00091C0F6FF92C0F7FF0800F55000018A5F74
:1017B000000E8B5B300E8A259E6F000E8B219F6F73
:1017C000A8EF0BF0D00E936FFF0E946F91C0F6FF51
:1017D00092C0F7FF0800F550956F966B93519527CF
:1017E0009451962396510AE10A0E955DD8A0FBEF1D
:1017F0000BF0FEEF0BF0010EFFEF0BF0000E9B6FF6
:101800009C6B9B519C11D8A408EF0CF00AEF0CF0D4
:10181000C6EF0BF097519811D8A411EF0CF013EF0D
:101820000CF021EF0CF09EC093F09FC094F0931F3A
:10183000941F934B942B93C091F094C092F025EF9A
:101840000CF09EC091F09FC092F01200000E166E38
:10185000000E156E000E0F6E000E0E6E32EF0CF0C5
:10186000084A092A010E146E08C0F6FF09C0F7FFE6
:101870000800F550200AD8B440EF0CF042EF0CF00D
:101880005FEF0CF0F70E0A6EFF0E0B6E08C0F6FF4E
:1018900009C0F7FF0800F5500C6E0D6A0A500C26BF
:1018A0000B500D220D5009E1050E0C5CD8A05BEF2A
:1018B0000CF05DEF0CF05FEF0CF0000E146E14C036
:1018C00010F0116A10501110D8A469EF0CF06BEFF2
:1018D0000CF030EF0CF075EF0CF0000E0F6E010EF7
:1018E0000E6E084A092AAAEF0CF008C0F6FF09C0DC
:1018F000F7FF0800F5500A6E0B6A0B50000AD8B4C7
:1019000084EF0CF0AAEF0CF00A502B0AD8B471EF58
:101910000CF0060AD8B46DEF0CF0AAEF0CF015C06D
:1019200001F016C002F0000E046E0A0E036EDFEC2A
:1019300019F008C0F6FF09C0F7FF0800F550015E76
:10194000000E025A300E0124156E000E0220166E93
:1019500071EF0CF0D00E0A6EFF0E0B6E08C0F6FF92
:1019600009C0F7FF0800F5500C6E0D6A0A500C26EE
:101970000B500D220D500AE10A0E0C5CD8A0C3EFEB
:101980000CF0C6EF0CF0010EC7EF0CF0000E126E5B
:10199000136A12501310D8A4D0EF0CF0D2EF0CF051
:1019A0008FEF0CF00E500F10D8A4D9EF0CF0DBEF36
:1019B0000CF0E9EF0CF015C00AF016C00BF00A1E8F
:1019C0000B1E0A4A0B2A0AC008F00BC009F0EDEF03
:1019D0000CF015C008F016C009F01200000E00014E
:1019E0009B6F99BFF8EF0CF0F6EF0CF00AEF0DF0DB
:1019F000991F981F971F961F951F941F931F926DF5
:101A0000000E9323942395239623972398239923B9
:101A1000010E9B6F91BF11EF0DF00FEF0DF023EF53
:101A20000DF0911F901F8F1F8E1F8D1F8C1F8B1FFE
:101A30008A6D000E8B238C238D238E238F2390237E
:101A40009123010E9B1B20EE9CF0070EDE6AE80638
:101A5000FDE29251931194119511961197119811DD
:101A60009911D8B436EF0DF038EF0DF08AEF0DF084
:101A7000010E9A6F46EF0DF0D89092379337943756
:101A8000953796379737983799379A2B99AF4BEF09
:101A90000DF04DEF0DF03CEF0DF0D8909C379D37D9
:101AA0009E379F37A037A137A237A33792518A5D5F
:101AB00093518B5994518C5995518D5996518E59FA
:101AC00097518F599851905999519159D8A06BEFCE
:101AD0000DF06DEF0DF07EEF0DF092518A5F935196
:101AE0008B5B94518C5B95518D5B96518E5B9751BE
:101AF0008F5B9851905B9951915B9C81D890993301
:101B000098339733963395339433933392339A2F94
:101B10004DEF0DF09B51D8B490EF0DF092EF0DF01A
:101B2000A2EF0DF0A31FA21FA11FA01F9F1F9E1FAA
:101B30009D1F9C6D000E9D239E239F23A023A12308
:101B4000A223A3239CC08AF09DC08BF09EC08CF082
:101B50009FC08DF0A0C08EF0A1C08FF0A2C090F009
:101B6000A3C091F01200000E126E10BEBCEF0DF07B
:101B7000BAEF0DF0CEEF0DF0101E0F1E0E1E0D1E53
:101B80000C1E0B1E0A1E096C000E0A220B220C22D0
:101B90000D220E220F221022010E126E08BED5EF6A
:101BA0000DF0D3EF0DF0E7EF0DF0081E071E061E37
:101BB000051E041E031E021E016C000E02220322DB
:101BC00004220522062207220822010E121A20EE04
:101BD00013F0070EDE6AE806FDE209500A100B104A
:101BE0000C100D100E100F101010D8B4FAEF0DF0ED
:101BF000FCEF0DF04EEF0EF0010E116E0AEF0EF03D
:101C0000D89009360A360B360C360D360E360F369E
:101C10001036112A10AE0FEF0EF011EF0EF000EF9C
:101C20000EF0D89013361436153616361736183689
:101C300019361A360950015C0A5002580B500358E5
:101C40000C5004580D5005580E5006580F500758A8
:101C500010500858D8A02FEF0EF031EF0EF042EFE1
:101C60000EF00950015E0A50025A0B50035A0C50F4
:101C7000045A0D50055A0E50065A0F50075A10506C
:101C8000085A1380D89010320F320E320D320C32B7
:101C90000B320A320932112E11EF0EF01250D8B465
:101CA00054EF0EF056EF0EF066EF0EF01A1E191EEE
:101CB000181E171E161E151E141E136C000E14225D
:101CC000152216221722182219221A2213C001F0F7
:101CD00014C002F015C003F016C004F017C005F0E0
:101CE00018C006F019C007F01AC008F01200D3504F
:101CF0008F0B6009D36E0F0EC16E000E8A6E936853
:101D0000F292F288F28E400E0001A36F420EA46F91
:101D10000F0EA56F000EA66FA00EA76F860EA86F00
:101D2000010EA96F000EAA6FB7EC19F073EC19F051
:101D30009AEC17F0A3EC1AF07B0E00018F6F000EE7
:101D4000906F790E916F000E926F770E936F000E69
:101D5000946F96EC10F0F40E00018F6F000E906FF0
:101D6000F20E916F000E926FF00E936F000E946F53
:101D7000CDEC11F09FEC1AF07B0E00018F6F000E7E
:101D8000906F790E916F000E926F770E936F000E29
:101D9000946F96EC10F0250E0101356F010E366F31
:101DA0002B0E376F060E386F7BC039F17CC03AF1CD
:101DB00079C03BF17AC03CF177C03DF178C03EF18B
:101DC0001DEC17F0250E00018B6F010E8C6F000EBD
:101DD0008E6F0A0E8D6F0DEC18F06FEC1AF0F40E8A
:101DE00000018F6F000E906FF20E916F000E926FD8
:101DF000F00E936F000E946FCDEC11F0250E0101E3
:101E0000356F010E366F3A0E376F060E386FF4C01D
:101E100039F1F5C03AF1F2C03BF1F3C03CF1F0C04A
:101E20003DF1F1C03EF11DEC17F0250E00018B6F66
:101E3000010E8C6F000E8E6F080E8D6F0DEC18F07A
:101E4000020E0001E96F450EE86FA90EE82EFED7DD
:101E5000E82FFCD7E92FFAD700D0BAEF0EF007EF42
:101E600000F0000E00019B6F91BF3BEF0FF039EFC8
:101E70000FF04DEF0FF0911F901F8F1F8E1F8D1FC2
:101E80008C1F8B1F8A6D000E8B238C238D238E233A
:101E90008F2390239123010E9B6F99BF54EF0FF076
:101EA00052EF0FF064EF0FF0991F981F971F961FC6
:101EB000951F941F931F926D000E932394239523D7
:101EC0009623972398239923925193119411951156
:101ED0009611971198119911D8B471EF0FF073EF13
:101EE0000FF0BBEF0FF0010E9A6F81EF0FF0D8905B
:101EF000923793379437953796379737983799377E
:101F00009A2B99AF86EF0FF088EF0FF077EF0FF075
:101F100092518A5D93518B5994518C5995518D5999
:101F200096518E5997518F5998519059995191596D
:101F3000D8A09DEF0FF09FEF0FF0AFEF0FF0925191
:101F40008A5F93518B5B94518C5B95518D5B96515D
:101F50008E5B97518F5B9851905B9951915BD890B4
:101F6000993398339733963395339433933392332D
:101F70009A2F88EF0FF09B51D8B4C1EF0FF0C3EF49
:101F80000FF0D3EF0FF0911F901F8F1F8E1F8D1F2B
:101F90008C1F8B1F8A6D000E8B238C238D238E2329
:101FA0008F23902391238AC08AF08BC08BF08CC042
:101FB0008CF08DC08DF08EC08EF08FC08FF090C0F1
:101FC00090F091C091F01200000E126E08BEEDEF7D
:101FD0000FF0EBEF0FF0FFEF0FF0081E071E061ECD
:101FE000051E041E031E021E016C000E02220322A7
:101FF00004220522062207220822010E126E10BEBC
:1020000006EF10F004EF10F016EF10F0101E0F1E88
:102010000E1E0D1E0C1E0B1E0A1E096C000E0A223F
:102020000B220C220D220E220F22102209500A1020
:102030000B100C100D100E100F101010D8B423EF51
:1020400010F025EF10F06DEF10F0010E116E33EF70
:1020500010F0D89009360A360B360C360D360E368F
:102060000F361036112A10AE38EF10F03AEF10F09C
:1020700029EF10F00950015C0A5002580B50035828
:102080000C5004580D5005580E5006580F50075864
:1020900010500858D8A04FEF10F051EF10F061EF3A
:1020A00010F00950015E0A50025A0B50035A0C50AE
:1020B000045A0D50055A0E50065A0F50075A105028
:1020C000085AD89010320F320E320D320C320B32C9
:1020D0000A320932112E3AEF10F01250D8B473EFD1
:1020E00010F075EF10F085EF10F0081E071E061EA9
:1020F000051E041E031E021E016C000E0222032296
:102100000422052206220722082201C001F002C093
:1021100002F003C003F004C004F005C005F006C0DF
:1021200006F007C007F008C008F01200000E00011A
:102130009B6F080E3FEC19F000019C6F070E3FECFF
:1021400019F000019D6F050E3FEC19F000019E6F24
:102150009DAFADEF10F0AFEF10F0B1EF10F0010E4A
:102160009B6F9D511F0B9D6F9E513F0B9E6F9B055B
:10217000D8B4BDEF10F0BFEF10F0DAEF10F09CC054
:1021800095F0953B0F0E951795510A0DF3CF96F0EC
:10219000F4CF97F09CC098F00F0E9817985196279F
:1021A000000E9723D00E9625996F070E97219A6FF0
:1021B000F3EF10F09CC095F0953B0F0E95179551DD
:1021C0000A0DF3CF96F0F4CF97F09CC098F00F0E65
:1021D000981798519627000E97236C0E9625996FA5
:1021E000070E97219A6F8FC0D9FF90C0DAFF99C070
:1021F000DEFF9AC0DDFF9DC095F0953B0F0E951751
:1022000095510A0DF3CF96F0F4CF97F09DC098F05A
:102210000F0E981798519627000E972391C0D9FF5B
:1022200092C0DAFF96C0DEFF97C0DDFF9EC095F03A
:10223000953B0F0E951795510A0DF3CF96F0F4CFFD
:1022400097F09EC098F00F0E981798519627000EA1
:10225000972393C0D9FF94C0DAFF96C0DEFF97C0E2
:10226000DDFF1200000E046E640E036E0DC001F05F
:102270000EC002F05AEC16F001C013F002C014F0C8
:10228000000E046E640E036E0DC001F00EC002F06D
:102290005AEC16F001C006F002C007F0000E096EFD
:1022A0000A0E086EB3EC15F006C011F007C012F06C
:1022B000113A123AF00E121611500F0B1212F00EC4
:1022C000111613C001F014C002F0000E046E0A0EC5
:1022D000036E5AEC16F0015011240D6E02501220BC
:1022E0000E6ED00E0D5C070E0E58D8B07AEF11F0BE
:1022F0007CEF11F082EF11F0000E166E000E156EDD
:1023000086EF11F0000E166E800E156E0FC001F0F4
:10231000026A000E046E0A0E036E88EC14F001C00F
:1023200011F002C012F00FC001F0026A000E046E3C
:102330000A0E036ECAEC13F00150100DF350112475
:1023400015100F6E10C001F0026A000E046E0A0E26
:10235000036E88EC14F001C011F002C012F010C03E
:1023600001F0026A000E046E0A0E036ECAEC13F04E
:102370000150100DF3501124106E0DC009F0080E1D
:1023800017EC1AF00FC009F0070E17EC1AF010C086
:1023900009F0050E17EC1AF01200040E3FEC19F0CC
:1023A0000001956F953B0F0E9517030E95179551EC
:1023B0000A0DF3CF96F0F4CF97F0040E3FEC19F02E
:1023C0000001986F0F0E981798519627000E9723CB
:1023D0008FC0D9FF90C0DAFF96C0DEFF97C0DDFF47
:1023E000030E3FEC19F00001956F953B0F0E95170A
:1023F000070E951795510A0DF3CF96F0F4CF97F08D
:10240000030E3FEC19F00001986F0F0E98179851CA
:102410009627000E972391C0D9FF92C0DAFF96C08D
:10242000DEFF97C0DDFF020E3FEC19F00001956F53
:10243000953B0F0E9517070E951795510A0DF3CF83
:1024400096F0F4CF97F0020E3FEC19F00001986F70
:102450000F0E981798519627000E972393C0D9FF17
:1024600094C0DAFF96C0DEFF97C0DDFF12000001C6
:102470008D518E11D8B43FEF12F041EF12F04AEFB8
:1024800012F08D518E11D8A448EF12F04AEF12F0DD
:102490004FEF12F08B5140EC1AF09CEF12F020EE4F
:1024A00004F08D51D9268E51DA22DE50DE10D8B4D8
:1024B0005CEF12F05EEF12F079EF12F020EE04F014
:1024C0008D51D9268E51DA2210EE02F08D51E1267F
:1024D0008E51E222DE50E65CE650800A936FDE50B9
:1024E000800A9359D8B077EF12F079EF12F09CEF91
:1024F00012F020EE02F08D51D9268E51DA22DECF75
:102500008FF0DDCF90F08DC0D9FF8EC0DAFFDECF27
:1025100091F0DDCF92F08F519125D96E905192219B
:10252000DA6E8BC0DFFF20EE02F08D51D9268E517E
:10253000DA22DE2A000EDD2212000001EEA1A3EF56
:1025400012F0A5EF12F0AFEF12F09DC094F09EC014
:1025500095F09BC096F09CC097F0E9EC17F0000155
:10256000A0BFB5EF12F0B7EF12F0BDEF12F09FC0B1
:10257000A4F0A0C0A5F0C1EF12F0000EA56F000EF0
:10258000A46F000EA36F000EA26FD4EF12F0000E26
:102590008C6F200E8B6F9BC08DF09CC08EF037EC43
:1025A00012F00001A24BA32BA451A25DA351800AFB
:1025B000A16FA551800AA159D8A0E1EF12F0E3EF75
:1025C00012F0C7EF12F0EEB1E8EF12F0EAEF12F0FE
:1025D000F4EF12F09DC094F09EC095F09BC096F071
:1025E0009CC097F0E9EC17F09DC08AF09EC08BF07C
:1025F000B4EC18F00001A4518A259B6FA5518B21E2
:102600009C6F120004500510D8B409EF13F00BEFC3
:1026100013F014EF13F004500510D8A412EF13F0C8
:1026200014EF13F019EF13F0025064EC1AF066EF98
:1026300013F020EE04F00450D9260550DA22DE50C3
:10264000DE10D8B426EF13F028EF13F043EF13F0A9
:1026500020EE04F00450D9260550DA2210EE02F0E4
:102660000450E1260550E222DE50E65CE650800A86
:102670000A6EDE50800A0A58D8B041EF13F043EFDB
:1026800013F066EF13F020EE02F00450D926055047
:10269000DA22DECF06F0DDCF07F004C0D9FF05C097
:1026A000DAFFDECF08F0DDCF09F006500824D96E3E
:1026B00007500920DA6E02C0DFFF20EE02F004505E
:1026C000D9260550DA22DE2A000EDD221200000192
:1026D000EEA16DEF13F06FEF13F079EF13F014C06C
:1026E0000BF015C00CF012C00DF013C00EF030EC62
:1026F00018F017BE7EEF13F080EF13F086EF13F0A3
:1027000016C01BF017C01CF08AEF13F0000E1C6EF1
:10271000000E1B6E000E1A6E000E196E9CEF13F069
:10272000000E036E200E026E12C004F013C005F0FE
:1027300002EC13F0194A1A2A1B50195C1A50800A2D
:10274000186E1C50800A1858D8A0A9EF13F0ABEFF0
:1027500013F090EF13F00001EEB1B1EF13F0B3EF0F
:1027600013F0BDEF13F014C00BF015C00CF012C045
:102770000DF013C00EF030EC18F014C001F015C0CD
:1027800002F00AEC19F01B500124126E1C500220BA
:10279000136E1200000E066E04BED3EF13F0D1EFDD
:1027A00013F0D9EF13F0036C041ED8B0042A010E05
:1027B000066E02BEE0EF13F0DEEF13F0E6EF13F06B
:1027C000016C021ED8B0022A010E061A000E086E15
:1027D000000E076E03500410D8B4F1EF13F0F3EFBE
:1027E00013F01BEF14F0010E056EFBEF13F0D89001
:1027F00003360436052A04AE00EF14F002EF14F09D
:10280000F7EF13F0D890073608360350015C0450F8
:102810000258D8A00EEF14F010EF14F015EF14F0DA
:102820000350015E0450025A0780D89004320332EC
:10283000052E02EF14F00650D8B421EF14F023EF68
:1028400014F027EF14F0076C081ED8B0082A07C050
:1028500001F008C002F012000F6E0FC001F0026A12
:10286000000E046E0A0E036E88EC14F001C00DF029
:1028700002C00EF00FC001F0026A000E046E0A0ED4
:10288000036ECAEC13F00150100DF3500D24096EC5
:10289000040E17EC1AF00BC001F0026A000E046E71
:1028A0000A0E036E88EC14F001C00DF002C00EF0A9
:1028B0000BC001F0026A000E046E0A0E036ECAEC31
:1028C00013F00150100DF3500D24096E030E17EC98
:1028D0001AF00CC001F0026A000E046E0A0E036EBC
:1028E00088EC14F001C00DF002C00EF00CC001F035
:1028F000026A000E046E0A0E036ECAEC13F0015059
:10290000100DF3500D24096E020E17EC1AF0120090
:10291000000E066E02BE91EF14F08FEF14F097EFE9
:1029200014F0016C021ED8B0022A010E066E04BE1D
:102930009EEF14F09CEF14F0A2EF14F0036C041E51
:10294000D8B0042A03500410D8B4A9EF14F0ABEFA8
:1029500014F0CFEF14F0010E056EB3EF14F0D89021
:1029600003360436052A04AEB8EF14F0BAEF14F0BB
:10297000AFEF14F00350015C04500258D8A0C3EF2D
:1029800014F0C5EF14F0C9EF14F00350015E0450C9
:10299000025AD89004320332052EBAEF14F00650D2
:1029A000D8B4D5EF14F0D7EF14F0DBEF14F0016CCE
:1029B000021ED8B0022A01C001F002C002F01200CB
:1029C000000E0001926F000E936F000E946F000EC8
:1029D000956F8E518F1190119111D8B4F2EF14F0C0
:1029E000F4EF14F02AEF15F0010E966FFEEF14F0DD
:1029F000D8908E378F3790379137962B91AF03EF62
:102A000015F005EF15F0F8EF14F0D89092379337E2
:102A1000943795378E518A5D8F518B5990518C59CF
:102A200091518D59D8A017EF15F019EF15F022EF3D
:102A300015F08E518A5F8F518B5B90518C5B915159
:102A40008D5B9281D890913390338F338E33962F54
:102A500005EF15F092C08AF093C08BF094C08CF013
:102A600095C08DF01200360EF66E350EF76E000E24
:102A7000F86E01EE47F010EE08F00900F5CFEEFF1A
:102A8000E550E150FAE1840EF66E350EF76E000E59
:102A9000F86E00EEF0F010EE06F00900F5CFEEFF54
:102AA000E550E150FAE17E0EF66E350EF76E000E3F
:102AB000F86E00EE77F010EE06F00900F5CFEEFFAD
:102AC000E550E150FAE101EE00F0350EEE6AE8065D
:102AD000FDE10001EF6BEE6BED6BEC6BEB6BEA6B0A
:102AE0007E6A7D6A7F907F92000EF86E000177EF1C
:102AF0000EF07BC00DF07CC00EF079C00FF077C0F7
:102B000010F032EC11F0250E5F6E010E606E1B0EA0
:102B1000616E060E626E7BC063F07CC064F079C0AB
:102B200065F07AC066F077C067F078C068F0C2ECF4
:102B300017F089EC1AF0B3EC1AF0250E026E010EB4
:102B4000036E000E056E0A0E046E73EC18F0020E92
:102B5000726E450E716EAA0EE82EFED7712EFCD74E
:102B6000722EFAD71200000E0B6E000E0A6E08507D
:102B70000910D8B4BEEF15F0C0EF15F0E8EF15F06E
:102B8000010E0C6EC8EF15F0D890083609360C2AE5
:102B900009AECDEF15F0CFEF15F0C4EF15F0D890DA
:102BA0000A360B360850065C09500758D8A0DBEFF0
:102BB00015F0DDEF15F0E2EF15F00850065E095054
:102BC000075A0A80D890093208320C2ECFEF15F040
:102BD0000AC006F00BC007F01200F2C00BF0F0C004
:102BE0000CF00001F4512CEC14F0250E5F6E010E78
:102BF000606E3A0E616E060E626EF4C063F0F5C050
:102C000064F0F2C065F0F3C066F0F0C067F0F1C0A8
:102C100068F0C2EC17F089EC1AF083EC1AF0250E7C
:102C2000026E010E036E000E056E080E046E73EC4C
:102C300018F0020E726E450E716EAA0EE82EFED7C7
:102C4000712EFCD7722EFAD71200E2C0E6F0E3C074
:102C5000E7F0000E0101016F000E006F47EF16F064
:102C6000E0C0CAF0E1C0CBF0E60E0001CC6F000E70
:102C7000CD6FE4C0CEF0E5C0CFF0C0EC06F00001AF
:102C8000CA51010100270001CB5101010123E6C017
:102C9000F6FFE7C0F7FF0800F5500009D8A453EF8E
:102CA00016F055EF16F030EF16F000C1E0F001C15C
:102CB000E1F0120003500410D8B461EF16F063EF96
:102CC00016F087EF16F0010E056E6BEF16F0D89038
:102CD00003360436052A04AE70EF16F072EF16F0D4
:102CE00067EF16F00350015C04500258D8A07BEF48
:102CF00016F07DEF16F081EF16F00350015E0450E0
:102D0000025AD89004320332052E72EF16F001C039
:102D100001F002C002F0120059C05DF05AC05EF02E
:102D2000000E0101016F000E006FAAEF16F057C0F0
:102D300041F058C042F05D0E436E000E446E5BC021
:102D400045F05CC046F005EC05F04150010100275C
:102D5000425001235DC0F6FF5EC0F7FF0800F5504A
:102D60000009D8A4B6EF16F0B8EF16F097EF16F0FA
:102D700000C157F001C158F01200380EC66E000EA7
:102D8000C56E97C08AF098C08BF099C08CF09AC03D
:102D90008DF09BC09FF09CC0A0F09DC0A1F09EC094
:102DA000A2F0020ED89000019F37A037A137A237BA
:102DB000E82ED2EF16F09FC08EF0A0C08FF0A1C019
:102DC00090F0A2C091F0E0EC14F000018A05C86E0A
:102DD000C00EC76E9486948812000600E1CF80F082
:102DE000E2CF81F0D9CF82F0DACF83F0F3CF84F055
:102DF000F4CF85F0F6CF86F0F7CF87F0F8CF88F0E4
:102E0000F5CF89F0F29825EC03F0F292F28889C0B0
:102E1000F5FF88C0F8FF87C0F7FF86C0F6FF85C0C2
:102E2000F4FF84C0F3FF83C0DAFF82C0D9FF81C002
:102E3000E2FF80C0E1FF7F921100390E01013F6F78
:102E4000010E406F35C141F136C142F1000E446FB1
:102E5000000E436F000E466F000E456F410E0001DD
:102E6000E06F010EE16F37C1E2F038C1E3F03F0ED1
:102E7000E46F010EE56F25EC16F001014351352595
:102E8000D96E44513621DA6E000EDF6E1200010E4B
:102E90000001906F200E8A198B11D8B452EF17F0F1
:102EA00054EF17F06DEF17F0F70E8C6FFF0E8D6F6C
:102EB0008AC08EF08BC08FF08C518E278D518F235E
:102EC0008F5109E1050E8E5DD8A069EF17F06BEF09
:102ED00017F06DEF17F0000E906F90C08AF08B6BBB
:102EE0001200010E076E200E01180210D8B47BEFFD
:102EF00017F07DEF17F096EF17F0F70E036EFF0E49
:102F0000046E01C005F002C006F00350052604500F
:102F10000622065009E1050E055CD8A092EF17F0D5
:102F200094EF17F096EF17F0000E076E07C001F050
:102F3000026A12000F0EC16E000E8C6E000E896EBA
:102F4000000E956E000E926E000E0101026F000ED3
:102F5000036FC80E00D0E82EFDD71C0E0101046FD0
:102F60003C0E33EC1AF0040E7E6E7DEC1AF0A3ECEE
:102F70001AF0030E7D6E7D50040933EC1AF09FECBD
:102F80001AF01200630E696E000E6A6E5FC06BF07D
:102F900060C06CF0000E6E6E000E6D6E000E706EF6
:102FA000000E6F6E6B0E576E000E586E61C059F0BA
:102FB00062C05AF0690E5B6E000E5C6E8CEC16F00F
:102FC0006D505F24D96E6E506020DA6E000EDF6E99
:102FD0001200000E00019A6F000E996FFCEF17F0BF
:102FE00098C08BF08C6B96C08DF097C08EF037EC4C
:102FF00012F00001994B9A2B99519425D96E9A5150
:103000009521DA6EDF50986F9851D8A40AEF18F026
:103010000CEF18F0F0EF17F01200000E0001916FA6
:10302000000E906F20EF18F090518B25D96E9151C2
:103030008C21DA6EDF5026EC1AF00001904B912BB8
:103040008D51905D9151800A8F6F8E51800A8F59FA
:10305000D8A02DEF18F02FEF18F014EF18F0120091
:10306000000E116E000E106E41EF18F00FC002F04E
:10307000036A0DC004F00EC005F002EC13F0104A14
:10308000112A10500B24D96E11500C20DA6EDF502B
:103090000F6E0F50D8A44FEF18F051EF18F036EF25
:1030A00018F0120000019DBF60EF18F09D5106E17D
:1030B0009C05D8B05EEF18F060EF18F06EEF18F0D6
:1030C0009CC09EF09DC09FF09E1F9F1F9E4B9F2BFC
:1030D0009EC09CF09FC09DF072EF18F09CC09CF0C9
:1030E0009DC09DF01200000E086E000E076E84EF6A
:1030F00018F007500224D96E08500320DA6EDF5012
:103100004CEC1AF0074A082A0450075C0850800A61
:10311000066E0550800A0658D8A091EF18F093EF7C
:1031200018F079EF18F0120014BEA1EF18F0145047
:1031300006E11304D8B09FEF18F0A1EF18F0AFEF3D
:1031400018F013C015F014C016F0151E161E154AFF
:10315000162A15C013F016C014F0B3EF18F013C000
:1031600013F014C014F012008AC08CF08BC08DF0E4
:10317000BDEF18F000018A4B8B2B8AC0D9FF8BC0A2
:10318000DAFFDF50D8A4C7EF18F0C9EF18F0BAEF94
:1031900018F000018C518A5D8A6F8D518B598B6FAD
:1031A0001200D00E00018C6FFF0E8D6F8AC08EF062
:1031B0008BC08FF08C518E278D518F238F510AE158
:1031C0000A0E8E5DD8A0E7EF18F0EAEF18F0010EB6
:1031D000EBEF18F0000E8A6F8B6B1200D00E036EAF
:1031E000FF0E046E01C005F002C006F00350052674
:1031F0000450062206500AE10A0E055CD8A003EF2F
:1032000019F006EF19F0010E07EF19F0000E016E2C
:10321000026A120001C003F002C004F012EF19F0BC
:10322000014A022A01C0D9FF02C0DAFFDF50D8A448
:103230001CEF19F01EEF19F010EF19F00350015CAC
:10324000016E04500258026E12000001946F21EECC
:1032500047F010EE8CF0070EDBCFE3FFE806FCE250
:1032600000019451020D8C0EF324D96E000EF4204F
:10327000DA6EDF508B25800933EC1AF01200000162
:103280008D6FABEC1AF0A20E76EC1AF000018D51A6
:1032900076EC1AF0AFEC1AF0A30E76EC1AF0000EF2
:1032A00059EC19F000018E6FA7EC1AF000018E5155
:1032B000120000018B6FCBEC19F0C586CBEC19F036
:1032C000C9CF8CF0CBEC19F000018B51D8B46BEF67
:1032D00019F06EEF19F0C58A6FEF19F0C59AC5881D
:1032E00000018C5112000A0E3FEC19F0080AD8B404
:1032F0007CEF19F07EEF19F08AEF19F0000E000153
:103300008C6F000E05EC1AF0000E00018C6F010EA0
:1033100005EC1AF012000B6E21EE47F010EE03F0F0
:10332000070EDBCFE3FFE806FCE20B50020D030EB5
:10333000F324D96E000EF420DA6EDF5002248009E7
:1033400058EC1AF0120000018A518C03F3CF8EF072
:10335000F4CF8FF08A518D03F3508F278B518C035C
:10336000F3508F278EC08AF08FC08BF01200A3C05D
:1033700097F0A4C098F0A5C099F0A6C09AF0A00E4E
:1033800000019B6F860E9C6F010E9D6F000E9E6F5D
:10339000BDEC16F01200C7B4D0EF19F0D2EF19F05F
:1033A000CBEF19F0C5CF8AF01F0E00018A17D8A401
:1033B000DCEF19F0DEEF19F0CBEF19F0120001503D
:1033C0000302F3CF05F0F4CF06F001500402F350EE
:1033D000062602500302F350062605C001F006C07F
:1033E00002F01200C7B4F7EF19F0F9EF19F0F2EF9D
:1033F00019F0C5CF01F01F0E0116D8A402EF1AF084
:1034000004EF1AF0F2EF19F0120000018D6FABEC2F
:103410001AF0A20E76EC1AF000018D5176EC1AF03B
:1034200000018C5176EC1AF0A7EC1AF012000A6E2B
:10343000BBEC1AF0A20E8FEC1AF00A508FEC1AF0C7
:1034400009508FEC1AF0B7EC1AF0120000018A6FE5
:103450008AC08CFF050E806EC80E00D0E82EFDD706
:10346000010E806E120000018A6F8AC08CFF040E6C
:10347000806EC80E00D0E82EFDD7000E806E1200C0
:1034800000018A6F9EA847EF1AF049EF1AF042EF49
:103490001AF08AC0ADFF1200016E01C08CFF050E4C
:1034A000806EC80E00D0E82EFDD7010E806E12008F
:1034B000016E01C08CFF040E806EC80E00D0E82E95
:1034C000FDD7000E806E1200016E9EA86AEF1AF002
:1034D0006CEF1AF065EF1AF001C0ADFF1200000E9C
:1034E00000018B6F010E25EC19F0120000018B6FAB
:1034F000CBEC19F08BC0C9FF12007E847E50080906
:1035000033EC1AF01200000E026E010E8BEC19F073
:1035100012007E907E50080958EC1AF01200026EDC
:10352000F2EC19F002C0C9FF12007E807E5008093B
:1035300058EC1AF012000000400014005400020E73
:1035400033EC1AF01200010E33EC1AF01200CBEC3F
:1035500019F0C5841200CBEC19F0C5801200CBEC39
:1035600019F0C5821200020E58EC1AF01200F2ECAB
:1035700019F0C5841200F2EC19F0C5801200110098
:0A3580000100E60703000500150036
:020000040020DA
:08000000FFFFFFFFFFFFFFFF00
:020000040030CA
:0E000000FF08191EFF8181FF0FC00FE00F40A7
:00000001FF
